:020000040000FA
:06000000BBEF12F012003C
:06100000BBEF12F012002C
:02102A000000C4
:04102C00D9CFE6FF33
:10103000E1CFD9FF020EE126DF6A010EDB6A776A93
:101040000F014B6BD26AD16AC098C26A230EC16E7F
:10105000C088C168C268C0989B9C92809284928A22
:1010600092869282969A949E939A939C9396959246
:10107000978C978A9A9E9A9C998A998C998E958A30
:101080009598959C959E938293844B6B838EC00E0E
:101090006D6E6B6A200E6C6E160EDF6EDE52430EA6
:1010A000DD6E010EDBCFE6FFDFCFE6FFC1EC0CF01B
:1010B000E552E5521B0EDF6EDE52700EDD6E010E44
:1010C000DBCFE6FFDFCFE6FFC1EC0CF0E552E552E7
:1010D0001C0EDF6EDE527F0EDD6E010EDBCFE6FFF3
:1010E000DFCFE6FFC1EC0CF0E552E5521D0EDF6EDE
:1010F000DE52040EDD6E010EDBCFE6FFDFCFE6FF32
:10110000C1EC0CF0E552E5521E0EDF6EDE527F0E92
:10111000DD6E010EDBCFE6FFDFCFE6FFC1EC0CF0AA
:10112000E552E552180EDF6EDE52040EDD6E010E42
:10113000DBCFE6FFDFCFE6FFC1EC0CF0E552E55276
:10114000818C818A849A828E020EE15C02E2E16ADD
:10115000E552E16EE552E7CFD9FF1200D9CFE6FFA5
:10116000E1CFD9FFE652DF6AFE0EE66EE668040EB6
:10117000E66E410EE66EAAEC11F0E552E552E5523C
:10118000E552DEEC12F0D4EC12F00009FCE1C450A0
:10119000FE0BE842DF6EDAEC12F0DF50E552E5526A
:1011A000E7CFD9FF1200D9CFE6FFE1CFD9FFE65252
:1011B000DF6AE66A800EE66E740EE66E410EE66E3B
:1011C000AAEC11F0E552E552E552E552DEEC12F0E0
:1011D000D4EC12F00009FCE1C450DF6EDF50106E59
:1011E000116AD890115004E6A20E105C000E11583E
:1011F0001EE2DF50106E116A113417E2105084089D
:10120000000E115412E2DF50106E116A840E105E4F
:10121000000E115A030E1102F3CF11F01002F3CF9A
:1012200010F0F4501126F35003D0DF6A02D0640EA0
:10123000DF6EDAEC12F0DF50E552E552E7CFD9FF6E
:101240001200D9CFE6FFE1CFD9FF020EE126DE6A18
:10125000DD6AE66AC00EE66E6C0EE66E410EE66E64
:10126000AAEC11F0E552E552E552E552DEEC12F03F
:10127000D4EC12F00009FCE1C450DE6EDD6ADECF72
:1012800010F0DDCF11F0450E105E000E115A10C0A7
:10129000DEFF11C0DDFFDECF10F0DDCF11F0113425
:1012A00024E210500008000E11541FE2DECF10F0AF
:1012B000DDCF11F00A0E1102F3CF11F01002F3CFBF
:1012C00010F0F4501126170E0D6E0E6AF3CF08F0D1
:1012D00011C009F030EC12F008C010F009C011F094
:1012E00008C0DEFF09C0DDFF02D0DE6ADD6ADAEC8D
:1012F00012F0DF50106E020EE15C02E2E16AE5528C
:10130000E16E1050E552E7CFD9FF1200D9CFE6FFCA
:10131000E1CFD9FFE652DF6AE66A800EE66E7C0E08
:10132000E66E410EE66EAAEC11F0E552E552E5528A
:10133000E552DEEC12F0D4EC12F00009FCE1C450EE
:10134000DF6EDAEC12F0DF50E552E552E7CFD9FF5D
:101350001200C088C168C268C0988750800B01E045
:10136000010E1200D9CFE6FFE1CFD9FFFC0EDB5012
:10137000020805E1FD0EDB5002E1000E33D0FE0E47
:10138000DB50CB6EFE0EDB50FE0BE76EFE0EE7CFA2
:10139000DBFFDB407F0BB76E8196CA84CA80CA82AE
:1013A000FC0EDB0404E0FC0EDB50020802E13F0E01
:1013B000B66EFD0EDB5000080CE2FC0EDB5002089E
:1013C00008E10A0EE66E6EEC12F0E552FD0EDB0649
:1013D000F0D7FC0EDB50020803E0FC0EDB5001E10D
:1013E000B66A010EE552E7CFD9FF1200D9CFE6FF6A
:1013F000E1CFD9FFE652DF6AFE0EDB50030A01E1BE
:1014000080D0010A56E0020A2CE0010A02E0000E38
:10141000A6D080B69DD0F00EE66EE6681C0EE66E95
:10142000410EE66EAAEC11F0E552E552E552E552A6
:10143000888C0C0EE66EC9EC12F0E552DEEC12F070
:10144000D4EC12F00009FCE1C450DF6E889C320E2F
:10145000E66EC9EC12F0E552DAEC12F080A67ED00E
:1014600077D080B275D0FC0EE66EE6680C0EE66EA4
:10147000410EE66EAAEC11F0E552E552E552E55256
:10148000888C0C0EE66EC9EC12F0E552DEEC12F020
:10149000D4EC12F00009FCE1C450DF6E889C320EDF
:1014A000E66EC9EC12F0E552DAEC12F080A256D0EA
:1014B0004FD085BC4DD0E66AF00EE66E5C0EE66E4F
:1014C000410EE66EAAEC11F0E552E552E552E55206
:1014D000888C0C0EE66EC9EC12F0E552DEEC12F0D0
:1014E000D4EC12F00009FCE1C450DF6E889C320E8F
:1014F000E66EC9EC12F0E552DAEC12F085AC2ED0B3
:1015000027D085BA25D0E66AF80EE66E540EE66E50
:10151000410EE66EAAEC11F0E552E552E552E552B5
:10152000888C0C0EE66EC9EC12F0E552DEEC12F07F
:10153000D4EC12F00009FCE1C450DF6E889C320E3E
:10154000E66EC9EC12F0E552DAEC12F085AA06D08C
:10155000320EE66EC9EC12F0E552DF6ADF50E5525A
:10156000E552E7CFD9FF1200D9CFE6FFE1CFD9FF8F
:10157000E652DF6AC088C168C268C098FE0EDB50C0
:10158000030A4AE0010A32E0020A1AE0010A02E014
:10159000000E5ED080B655D0888C0C0EE66EC9EC7D
:1015A00012F0E5528050080B01E0010EDF6E889CBE
:1015B000320EE66EC9EC12F0E55280A648D041D05A
:1015C00080B23FD0888C0C0EE66EC9EC12F0E5526A
:1015D0008050020B01E0010EDF6E889C320EE66E39
:1015E000C9EC12F0E55280A232D02BD085BC29D0B4
:1015F000888C0C0EE66EC9EC12F0E5528550400B5B
:1016000001E0010EDF6E889C320EE66EC9EC12F02E
:10161000E55285AC1CD015D085BA13D0888C0C0E41
:10162000E66EC9EC12F0E5528550200B01E0010E88
:10163000DF6E889C320EE66EC9EC12F0E55285AA88
:1016400006D0320EE66EC9EC12F0E552DF6ADF50CA
:10165000E552E552E7CFD9FF1200D9CFE6FFE1CF3F
:10166000D9FF060EE126DF6A010EDB6A020EDB6A95
:10167000030EDB68040EDB68050EDB6ADE52160E15
:10168000DD6E050EF36E020EF3CFDBFFDBCFE6FF60
:10169000010EDBCFE6FF75D9E552E552000EF36E81
:1016A000030EDBCFF4FFF350F45C27E3040EDB06FC
:1016B000000EF36E040EDBCFF4FFF350F45C02E394
:1016C00081A2F4D781B219D0030EDB06DB5012E100
:1016D000DE52160EDD6E430EF36E020EF3CFDBFF0D
:1016E000DBCFE6FF010EDBCFE6FF4BD9E552E5523B
:1016F000000E31D0040EDB68D1D7FE0EDB50020A9B
:101700000AE0030A05E0010A15E1DE52060E05D0E3
:10171000DE52070E02D0DE52080EDD6E010EDBCF68
:10172000E6FF56D9E552E76E050EE7CFDBFFDB504B
:10173000800ADF6EDE52160EDD6E430EF36E020E71
:10174000F3CFDBFFDBCFE6FF010EDBCFE6FF19D9DE
:10175000E552E552DF50106E060EE15C02E2E16AEE
:10176000E552E16E1050E552E7CFD9FF1200D9CF14
:10177000E6FFE1CFD9FF040EE126DF6A010EDB6A46
:10178000020EDB6A030EDB6A0A0EDF6EDFCFE6FFB6
:101790001FD9E552E76E030EE7CFDBFFDB50030BEB
:1017A000E76E010EE7CFDBFFDB50030804E0010E1C
:1017B000DB50020807E1010EDB50020BE76E010E61
:1017C000E7CFDBFF170EDF6E030EF36E020EF3CFD3
:1017D000DBFFDBCFE6FFDFCFE6FFD3D8E552E552F4
:1017E000170EDF6E020EDB6ADBCFE6FFDFCFE6FF10
:1017F000C8D8E552E552050EE66E6EEC12F0E552E1
:10180000050EE66E6EEC12F0E552050EE66E6EEC1D
:1018100012F0E552050EE66E6EEC12F0E552050E82
:10182000E66E6EEC12F0E552010EDB50106E040E07
:10183000E15C02E2E16AE552E16E1050E552E7CF69
:10184000D9FF1200D9CFE6FFE1CFD9FFE652DF6A18
:10185000FE0EDB5007E0010A12E1F80EE66EE668C4
:10186000140E04D0E00EE66EE668240EE66E410E1D
:10187000E66EAAEC11F0E552E552E552E55283829C
:101880005A0EE66EC9EC12F0E552DEEC12F0D4EC22
:1018900012F00009FCE1C450DF6E8392DAEC12F022
:1018A000DF50E552E552E7CFD9FF1200D9CFE6FF6E
:1018B000E1CFD9FFE652DF6AC088C168C268C0982C
:1018C00083825A0EE66EC9EC12F0E552FE0EDB5032
:1018D00008E0010A0BE18050040B01E0010EDF6E0D
:1018E00005D08050200B01E0010EDF6E8392DF50A7
:1018F000E552E552E7CFD9FF1200829E1200828E98
:101900001200829E050EE66E6EEC12F0E552828E9B
:10191000050EE66E6EEC12F0E5521200848A12009B
:10192000849A1200849A050EE66E6EEC12F0E5526F
:10193000848A050EE66E6EEC12F0E5521200819A72
:101940001200818A1200819A050EE66E6EEC12F08A
:10195000E552818A050EE66E6EEC12F0E552120039
:10196000819C1200818C1200819C050EE66E6EEC4B
:1019700012F0E552818C050EE66E6EEC12F0E55227
:101980001200D9CFE6FFE1CFD9FF959E839E5A0E74
:10199000E66EC9EC12F0E552FE0EDB50E8240F01B2
:1019A000006F800E0011006FFD0EDBCF01FF00CF36
:1019B0006FFF6DA0FED76FCF03FF01CF6FFF6DA04C
:1019C000FED76FCF02FF838EE552E7CFD9FF12001B
:1019D000D9CFE6FFE1CFD9FF959E839E5A0EE66EE2
:1019E000C9EC12F0E552FE0EDB50E8240F01046F43
:1019F0007F0E0415046F056B6F6E6DA0FED76FCF61
:101A000007FF05CF6FFF6DA0FED76FCF06FF838E58
:101A10000F010651E552E7CFD9FF1200968296805A
:101A200084928490968E1200D9CFE6FFE1CFD9FF41
:101A3000FE0EDB50640802E2020E31D00F01086B8B
:101A4000FE0EDB50020DFE0EF3CFDBFFFD0EDB5072
:101A500004E0FE0EDB50010903D0FE0EDB50FE0B4E
:101A6000E76EFE0EE7CFDBFF0851040DF3CF08FF52
:101A7000FC0EDB5005E0020E0811086FFE0E01D0CF
:101A8000FC0E0815086FFB0EDBCFE6FFFE0EDBCF6A
:101A9000E6FF08CFE6FF08DBE552E552E552E552E6
:101AA000E7CFD9FF1200D9CFE6FFE1CFD9FFFE0E75
:101AB000DB50640802E2020E40D00F01010E096FF4
:101AC000FE0EDB50020DFE0EF3CFDBFFFD0EDB50F2
:101AD00004E0FE0EDB50010903D0FE0EDB50FE0BCE
:101AE000E76EFE0EE7CFDBFF0951040DF3CF09FFD0
:101AF000FB0EDB500AE0FC0EDB5002E0030E0CD0C4
:101B0000020E0911096FFE0E0AD0FC0EDB5006E032
:101B1000FD0E0915096F010E091102D0FC0E091501
:101B2000096FFA0EDBCFE6FFFE0EDBCFE6FF09CF33
:101B3000E6FFBADAE552E552E552E552E7CFD9FFC2
:101B40001200D9CFE6FFE1CFD9FFFE0EDB506408CB
:101B50000DE3FC0EDB0403E0FC0EDB5007E1FA0EA4
:101B6000DB5006E1F90EDB50640802E2020E44D0BD
:101B70000F01020E0A6FFE0EDB50020DFE0EF3CFB8
:101B8000DBFFFD0EDB5004E0FE0EDB50010903D04D
:101B9000FE0EDB50FE0BE76EFE0EE7CFDBFF0A51B9
:101BA000040DF3CF0AFFFA0EDB500AE0FB0EDB5008
:101BB00002E0030E0CD0020E0A110A6FFE0E0AD0CC
:101BC000FB0EDB5006E0FD0E0A150A6F010E0A112E
:101BD00002D0FC0E0A150A6FF90EDBCFE6FFFC0EF1
:101BE000DBCFE6FFFE0EDBCFE6FF0ACFE6FF9EDA95
:101BF000E552E552E552E552E552E7CFD9FF120032
:101C0000D9CFE6FFE1CFD9FFFE0EDB50640819E320
:101C1000FC0EDBCFE6FFFE0EDB50E552E724640846
:101C200010E3FE0EDBCFE6FFFC0EDB50E552E75C77
:101C3000106E116A113407E210509C08000E115406
:101C400002E2020E44D00F01030E0B6FFE0EDB50BA
:101C5000020DFE0EF3CFDBFFFD0EDB5004E0FE0EA7
:101C6000DB50010903D0FE0EDB50FE0BE76EFE0ECB
:101C7000E7CFDBFF0B51040DF3CF0BFFFA0EDB5068
:101C80000AE0FB0EDB5002E0030E0CD0020E0B113B
:101C90000B6FFE0E0AD0FB0EDB5006E0FD0E0B159F
:101CA0000B6F010E0B1102D0FC0E0B150B6FF90E12
:101CB000DBCFE6FFFC0EDBCFE6FFFE0EDBCFE6FF61
:101CC0000BCFE6FF33DAE552E552E552E552E55235
:101CD000E7CFD9FF12000F01040EE850040DFC0EEF
:101CE000F3140C6FE66EB2D9E5521200D9CFE6FFBD
:101CF000E1CFD9FFFE0EDB50F009E76EFE0EE7CF15
:101D0000DBFFFE0EDBCFE6FFA1D9E552E552E7CFC0
:101D1000D9FF1200D9CFE6FFE1CFD9FFFE0EDB508D
:101D20008009E76EFE0EE7CFDBFFFE0EDBCFE6FF9E
:101D30008DD9E552000923E10F010A0E0F6F0F51F3
:101D400000081DE227D8110EE66E26D9E55229D8E3
:101D50000F010D6FE85006E02ED80F010F07010E9E
:101D60000E6FEDD72BD80F01106F65D927D80F0153
:101D7000116F67D920D80F010F6B0E6BE0D7100ED3
:101D8000106E0F0E116E10C0F3FFF46EE552E7CF28
:101D9000D9FF1200968296808492969284909690B3
:101DA00012009682968084A203D096929690010C9F
:101DB00096929690000C968096821200D9CFE6FFFC
:101DC000E1CFD9FF030EE126020EDB6A9682DE6ABE
:101DD000DD6ADECF10F0DDCF11F0113404E21050D7
:101DE0000708000E115401E2C7D0968084A0FED7E8
:101DF000D9CFE9FFDACFEAFFEE50ED100FE184A270
:101E000004D0020EDB50800903D0020EDB507F0BA2
:101E1000E76E020EE7CFDBFF84909690D9CFE9FF03
:101E2000DACFEAFF010EEE1811E1ED500FE184A2C6
:101E300004D0020EDB50400903D0020EDB50BF0B72
:101E4000E76E020EE7CFDBFF84909690D9CFE9FFD3
:101E5000DACFEAFF020EEE1811E1ED500FE184A295
:101E600004D0020EDB50200903D0020EDB50DF0B42
:101E7000E76E020EE7CFDBFF84909690D9CFE9FFA3
:101E8000DACFEAFF030EEE1811E1ED500FE184A264
:101E900004D0020EDB50100903D0020EDB50EF0B12
:101EA000E76E020EE7CFDBFF84909690D9CFE9FF73
:101EB000DACFEAFF040EEE1811E1ED500FE184A233
:101EC00004D0020EDB50080903D0020EDB50F70BE2
:101ED000E76E020EE7CFDBFF84909690D9CFE9FF43
:101EE000DACFEAFF050EEE1811E1ED500FE184A202
:101EF00004D0020EDB50040903D0020EDB50FB0BB2
:101F0000E76E020EE7CFDBFF84909690D9CFE9FF12
:101F1000DACFEAFF060EEE1811E1ED500FE184A2D0
:101F200004D0020EDB50020903D0020EDB50FD0B81
:101F3000E76E020EE7CFDBFF84909690D9CFE9FFE2
:101F4000DACFEAFF070EEE1811E1ED500FE184A29F
:101F500004D0020EDB50010903D0020EDB50FE0B51
:101F6000E76E020EE7CFDBFF84909690DF2A010E2A
:101F700001E22FD7DB2A2DD784929692020EDB50F6
:101F8000106E030EE15C02E2E16AE552E16E105070
:101F9000E552E7CFD9FF1200D9CFE6FFE1CFD9FF55
:101FA000020EE126DE6ADD6ADECF10F0DDCF11F031
:101FB000113404E210500708000E115432E3FE0EF3
:101FC000DB50DF5206E0DFCFF3FFE846FE0BF306FF
:101FD000FCE17F09FF0810E1968296800000000076
:101FE00000000000000000009690000000000000CB
:101FF00000000000000010D08492969296800000AD
:1020000000000000000000000000969000000000AA
:102010000000000000000000DF2A010E01E3DB2ABF
:10202000C3D7020EE15C02E2E16AE552E16EE552DD
:10203000E7CFD9FF1200849296929680969096826E
:10204000120096829680969096821200D9CFE6FF73
:10205000E1CFD9FF0F010A0E146F145100081FE2DF
:1020600099DE100EE66E98DFE5529BDE0F01126FCF
:10207000E8500AE1FE0EDBCFE6FF8EDFE55291DE8F
:102080000F01126FE85006E096DE0F011407010EF3
:10209000136FE3D790DE0F01146B136BDED7135170
:1020A000E552E7CFD9FF1200D9CFE6FFE1CFD9FF44
:1020B0000F010A0E176F1751000833E26BDE100E86
:1020C000E66E6ADFE5526DDE0F01156FE8501EE126
:1020D000FE0EDBCFE6FF60DFE55263DE0F01156F1A
:1020E000E85014E1FD0EDBCFE6FF56DFE55259DE86
:1020F0000F01156FE8500AE1FC0EDBCFE6FF4CDF65
:10210000E5524FDE0F01156FE85006E054DE0F0177
:102110001707010E166FCFD74EDE0F01176B166B28
:10212000CAD71651E552E7CFD9FF1200D9CFE6FF43
:10213000E1CFD9FF0F010A0E1A6F1A5100083DE2D4
:1021400029DE100EE66E28DFE5522BDE0F01186F38
:10215000E85028E1FE0EDBCFE6FF1EDFE55221DE70
:102160000F01186FE8501EE1FD0EDBCFE6FF14DF14
:10217000E55217DE0F01186FE85014E1FC0EDBCFBB
:10218000E6FF0ADFE5520DDE0F01186FE8500AE1A5
:10219000FB0EDBCFE6FF00DFE55203DE0F01186F19
:1021A000E85006E008DE0F011A07010E196FC5D7C7
:1021B00002DE0F011A6B196BC0D71951E552E7CF38
:1021C000D9FF12002BDC16EF08F0640CD9CFE6FF24
:1021D000E1CFD9FF010EF36EFE0EDBCFF4FFF3501B
:1021E000F45C05E2010EF36EFE0EF3CFDBFFFE0E94
:1021F000DBCFE6FF9BEC12F0E552E552E7CFD9FFCB
:102200001200120012001200D9CFE6FFE1CFD9FF71
:10221000020EE126060EE66E7DDDE552F3CFE9FF04
:10222000F4CFEAFFEFCFDFFF060EE66E73DDE55277
:10223000F3CFE9FFF4CFEAFF010EE926000EEA2210
:10224000010EEFCFDBFFDBCF10F0116A10BE11687B
:1022500010C011F0106ADBCF12F0136A12BE1368BF
:1022600010501224106E020EE15C02E2E16AE552A7
:10227000E16E1050E552E7CFD9FF1200106A116AE3
:10228000800E126E3F0E10C006F011C007F012C093
:1022900008F0096E1200D9CFE6FFE552E7CFD9FF6B
:1022A0001200D9CFE6FFE552E7CFD9FF12001200A6
:0622B0001200000C000CFE
:0A22B6002A0EF66E100EF76E000EF1
:1022C000F86E0F010900F550206F0900F550216FDD
:1022D00003E1206701D03DD00900F5501B6F0900D4
:1022E000F5501C6F0900F5501D6F09000900F550ED
:1022F000E96E0900F550EA6E090009000900F55081
:102300001E6F0900F5501F6F09000900F6CF22FF6C
:10231000F7CF23FFF8CF24FF1BCFF6FF1CCFF7FF2B
:102320001DCFF8FF0F011E5302E11F5307E0090004
:10233000F550EE6E1E07F8E21F07F9D722CFF6FF21
:1023400023CFF7FF24CFF8FF0F012007000E215BFA
:04235000BFD71200E1
:0C235400D9CFE6FFDACFE6FFE1CFD9FFDA
:10236000E2CFDAFFC098C26AC16AFC0EDB50400DB2
:10237000F350C00B106EFC0EDB407F0B3C0B1010BB
:10238000C26EFD0EDB50040DF350380B116EFD0EC6
:10239000DB380F0B070B106EFD0EDB50800B10109F
:1023A0001110C16EC088FA0EDB50C16EFA0EDBCF81
:1023B00010F0FB0EDBCF11F011C010F0116A1050BD
:1023C000C26EC098FC0EDBAE03D09E9C9D8CF28C3E
:0E23D000C280E552E5CFDAFFE7CFD9FF120059
:0223DE00D9CF55
:1023E000E6FFE1CFD9FFE2EC10F0E80EE66EE6EC96
:1023F00010F0E552FD0EDBCFE9FFFE0EDBCFEAFF6A
:10240000EE52EE6AED6AE552E7CFD9FF1200D9CF5E
:10241000E6FF010EE552E7CFD9FF12001200D9CF37
:10242000E6FFE1CFD9FF18D8010801E1F7DFFD0E83
:10243000DBCFE6FFFE0EDBCFE6FF07D8E552E55225
:102440000108F1E101D8EFD71200D9CFE6FF000E65
:10245000E552E7CFD9FF1200000C000C1200120069
:10246000006A0EAE39EF12F00D6C0E1EE86A0E22F5
:10247000001E09AE41EF12F0086C091EE86A09223D
:10248000001E85EC12F009BE51EF12F000AE000CF8
:10249000086C091EE86A0922046C051EE86A052218
:0C24A000000C00BE48EF12F00188FF0C99
:0424AC00D9CFE6FF9F
:1024B000E1CFD9FF030EE126D9CFE6FFDACFE6FF61
:1024C000EFEC11F0E552E552030EE15C02E2E16A45
:0C24D000E552E16EE552E7CFD9FF1200A3
:0424DC00FF0EE350BC
:1024E000156EEF0E01D0F30EE76EE72E75EF12F0CA
:1024F0000C0E146EE76AE72E7BEF12F0142E7AEFC3
:0A25000012F0152E73EF12F0120016
:06250A00056A046A100ED0
:10251000E76ED89008360936043605360D50045C4F
:102520000E50055805E30D50045E0E50055A082A5A
:06253000E72EF0D71200B7
:0A253600FF0EE350156E480E01D0B1
:102540004C0EE76EE72EFED7E76AE72EFED7152E74
:06255000F7D700001200A5
:0A255600400EF36E00EE00F00F0ED1
:1025600001D81200EA6002D0EE6AFCD7F350E960AD
:062570001200EE6AFCD728
:0A2576001EEE00F02EEE00F0F86AF1
:10258000019C5BEC11F0E1EC12F056EC12F0FBD781
:02259000120037
:0E259200FF0EE350E84E1200000000D000D013
:0825A00000D0E82EFAD712006A
:0825A800C098C250020B01E0D3
:0425B000010E120006
:0825B400C098C2909D9C12002A
:0425BC00C098C2827F
:0225C000120007
:0225C200120005
:00000001FF
